{
  "_format": "hh-sol-artifact-1",
  "contractName": "seashore",
  "sourceName": "contracts/NFTMarketplace.sol",
  "abi": [
    {
      "inputs": [],
      "stateMutability": "nonpayable",
      "type": "constructor"
    },
    {
      "inputs": [],
      "name": "ReentrancyGuardReentrantCall",
      "type": "error"
    },
    {
      "anonymous": false,
      "inputs": [
        {
          "indexed": true,
          "internalType": "uint256",
          "name": "nftId",
          "type": "uint256"
        },
        {
          "indexed": true,
          "internalType": "contract IERC721",
          "name": "nft",
          "type": "address"
        },
        {
          "indexed": false,
          "internalType": "address",
          "name": "seller",
          "type": "address"
        },
        {
          "indexed": false,
          "internalType": "bool",
          "name": "sold",
          "type": "bool"
        },
        {
          "indexed": false,
          "internalType": "uint256",
          "name": "price",
          "type": "uint256"
        },
        {
          "indexed": false,
          "internalType": "address",
          "name": "owner",
          "type": "address"
        }
      ],
      "name": "buy",
      "type": "event"
    },
    {
      "anonymous": false,
      "inputs": [
        {
          "indexed": true,
          "internalType": "uint256",
          "name": "nftId",
          "type": "uint256"
        },
        {
          "indexed": true,
          "internalType": "contract IERC721",
          "name": "nft",
          "type": "address"
        },
        {
          "indexed": false,
          "internalType": "address",
          "name": "seller",
          "type": "address"
        },
        {
          "indexed": false,
          "internalType": "bool",
          "name": "sold",
          "type": "bool"
        },
        {
          "indexed": false,
          "internalType": "uint256",
          "name": "price",
          "type": "uint256"
        },
        {
          "indexed": false,
          "internalType": "address",
          "name": "owner",
          "type": "address"
        }
      ],
      "name": "itemListed",
      "type": "event"
    },
    {
      "inputs": [
        {
          "internalType": "uint256",
          "name": "_nftId",
          "type": "uint256"
        }
      ],
      "name": "buyItem",
      "outputs": [],
      "stateMutability": "payable",
      "type": "function"
    },
    {
      "inputs": [
        {
          "internalType": "contract IERC721",
          "name": "_nft",
          "type": "address"
        },
        {
          "internalType": "uint256",
          "name": "_nftId",
          "type": "uint256"
        },
        {
          "internalType": "uint256",
          "name": "_price",
          "type": "uint256"
        }
      ],
      "name": "listItem",
      "outputs": [],
      "stateMutability": "nonpayable",
      "type": "function"
    }
  ],
  "bytecode": "0x608060405234801561001057600080fd5b506001600081905550610af6806100286000396000f3fe6080604052600436106100295760003560e01c806389bfd38f1461002e578063e7fb74c714610057575b600080fd5b34801561003a57600080fd5b5061005560048036038101906100509190610719565b610073565b005b610071600480360381019061006c919061076c565b610339565b005b61007b61061e565b6001600081548092919061008e906107c8565b9190505550600081116100d6576040517f08c379a00000000000000000000000000000000000000000000000000000000081526004016100cd9061086d565b60405180910390fd5b6040518060c001604052808381526020018473ffffffffffffffffffffffffffffffffffffffff1681526020013373ffffffffffffffffffffffffffffffffffffffff1681526020016000151581526020018281526020013073ffffffffffffffffffffffffffffffffffffffff16815250600260008481526020019081526020016000206000820151816000015560208201518160010160006101000a81548173ffffffffffffffffffffffffffffffffffffffff021916908373ffffffffffffffffffffffffffffffffffffffff16021790555060408201518160020160006101000a81548173ffffffffffffffffffffffffffffffffffffffff021916908373ffffffffffffffffffffffffffffffffffffffff16021790555060608201518160020160146101000a81548160ff0219169083151502179055506080820151816003015560a08201518160040160006101000a81548173ffffffffffffffffffffffffffffffffffffffff021916908373ffffffffffffffffffffffffffffffffffffffff1602179055509050508273ffffffffffffffffffffffffffffffffffffffff166323b872dd3330856040518463ffffffff1660e01b81526004016102a49392919061090a565b600060405180830381600087803b1580156102be57600080fd5b505af11580156102d2573d6000803e3d6000fd5b505050508273ffffffffffffffffffffffffffffffffffffffff16827fd02b6c4ac991cba38111598526ce9837043997c30eb46198b5d806589b2ec5fc3360008530604051610324949392919061095c565b60405180910390a3610334610664565b505050565b600060026000838152602001908152602001600020905080600301543410610396576040517f08c379a000000000000000000000000000000000000000000000000000000000815260040161038d906109ed565b60405180910390fd5b60018160020160146101000a81548160ff0219169083151502179055508060010160009054906101000a900473ffffffffffffffffffffffffffffffffffffffff1673ffffffffffffffffffffffffffffffffffffffff166323b872dd3033856040518463ffffffff1660e01b815260040161041493929190610a0d565b600060405180830381600087803b15801561042e57600080fd5b505af1158015610442573d6000803e3d6000fd5b505050508060010160009054906101000a900473ffffffffffffffffffffffffffffffffffffffff1673ffffffffffffffffffffffffffffffffffffffff166323b872dd338360020160009054906101000a900473ffffffffffffffffffffffffffffffffffffffff1684600301546040518463ffffffff1660e01b81526004016104cf93929190610a44565b600060405180830381600087803b1580156104e957600080fd5b505af11580156104fd573d6000803e3d6000fd5b50505050338160040160006101000a81548173ffffffffffffffffffffffffffffffffffffffff021916908373ffffffffffffffffffffffffffffffffffffffff1602179055508060010160009054906101000a900473ffffffffffffffffffffffffffffffffffffffff1673ffffffffffffffffffffffffffffffffffffffff16827fcd48352da7f3b388ac0adfe6f8dd3b40d097da451a46de9033f93440b88ac91c8360020160009054906101000a900473ffffffffffffffffffffffffffffffffffffffff168460020160149054906101000a900460ff1685600301548660040160009054906101000a900473ffffffffffffffffffffffffffffffffffffffff166040516106129493929190610a7b565b60405180910390a35050565b60026000540361065a576040517f3ee5aeb500000000000000000000000000000000000000000000000000000000815260040160405180910390fd5b6002600081905550565b6001600081905550565b600080fd5b600073ffffffffffffffffffffffffffffffffffffffff82169050919050565b600061069e82610673565b9050919050565b60006106b082610693565b9050919050565b6106c0816106a5565b81146106cb57600080fd5b50565b6000813590506106dd816106b7565b92915050565b6000819050919050565b6106f6816106e3565b811461070157600080fd5b50565b600081359050610713816106ed565b92915050565b6000806000606084860312156107325761073161066e565b5b6000610740868287016106ce565b935050602061075186828701610704565b925050604061076286828701610704565b9150509250925092565b6000602082840312156107825761078161066e565b5b600061079084828501610704565b91505092915050565b7f4e487b7100000000000000000000000000000000000000000000000000000000600052601160045260246000fd5b60006107d3826106e3565b91507fffffffffffffffffffffffffffffffffffffffffffffffffffffffffffffffff820361080557610804610799565b5b600182019050919050565b600082825260208201905092915050565b7f7072696365207368756c646265206d6f7265207468616e207a65726f00000000600082015250565b6000610857601c83610810565b915061086282610821565b602082019050919050565b600060208201905081810360008301526108868161084a565b9050919050565b6000819050919050565b60006108b26108ad6108a884610673565b61088d565b610673565b9050919050565b60006108c482610897565b9050919050565b60006108d6826108b9565b9050919050565b6108e6816108cb565b82525050565b6108f581610693565b82525050565b610904816106e3565b82525050565b600060608201905061091f60008301866108dd565b61092c60208301856108ec565b61093960408301846108fb565b949350505050565b60008115159050919050565b61095681610941565b82525050565b600060808201905061097160008301876108ec565b61097e602083018661094d565b61098b60408301856108fb565b61099860608301846108ec565b95945050505050565b7f6e6f7420656e6f7567682062616c616e63650000000000000000000000000000600082015250565b60006109d7601283610810565b91506109e2826109a1565b602082019050919050565b60006020820190508181036000830152610a06816109ca565b9050919050565b6000606082019050610a2260008301866108ec565b610a2f60208301856108ec565b610a3c60408301846108fb565b949350505050565b6000606082019050610a5960008301866108ec565b610a6660208301856108dd565b610a7360408301846108fb565b949350505050565b6000608082019050610a9060008301876108dd565b610a9d602083018661094d565b610aaa60408301856108fb565b610ab760608301846108dd565b9594505050505056fea26469706673582212206679a7b12914127d0c4074a08966265de887bb7b3b10fdee51b3fc0dff18ebe264736f6c63430008180033",
  "linkReferences": {},
  "deployedLinkReferences": {}
}